S01800006275696C642F6D696361322F6D61696E2E737265632D
S11300000C9449000C9468000C9468000C946800EB
S11300100C9468000C9468000C9468000C946800BC
S11300200C9468000C9468000C9468000C946800AC
S11300300C9468000C9468000C9468000C9468009C
S11300400C9468000C94EF0F0C9468000C946800F6
S11300500C9468000C9468000C9468000C9468007C
S11300600C9468000C9468000C9468000C9468006C
S11300700C9468000C9468000C9468000C9468005C
S11300800C9468000C9468000C94680000081C1818
S1130090141011241FBECFEFD0E1DEBFCDBF14E09A
S11300A0A0E0B1E0E6E7F3E200E00BBF02C0079096
S11300B00D92A639B107D9F717E0A6E9B4E001C05B
S11300C01D92A735B107E1F70E94FF0F0C94BA11F6
S11300D00C9400002F923F924F925F926F927F9206
S11300E08F929F92AF92BF92CF92DF92EF92FF9244
S11300F00F931F93CF93DF93CDB7DEB7C55ED74081
S11301000FB6F894DEBF0FBECDBFCE51D84F798362
S11301106883C25ED740CC51D84F39832883C45EEC
S1130120D740FE01EF59FF4F91838083DB010D918E
S11301301D912D913C910283138324833583168270
S113014017821086118653874287CC51D84FA881D5
S1130150B981C45ED7402D913D914D915C91248726
S1130160358746875787108A118A128A138A158A17
S1130170148A178A168ACF0148960E947911892B0E
S113018029F032E0832E912C0C94CE0F209008019C
S113019030900901FE01EF59FF4F848995896C0164
S11301A0EE24D7FCE094FE2CC252D84FC882D982E8
S11301B0EA82FB82CE5DD74041C0F80120893189B3
S11301C04289538984859585A685B785281739077B
S11301D04A075B0711F40C94FC0DF801A285B38562
S11301E0A20FB31F8C919927AA27BB27062E04C000
S11301F0880F991FAA1FBB1F0A94D2F7C252D84F67
S1130200C880D980EA80FB80CE5DD740C82AD92A2D
S1130210EA2AFB2AC252D84FC882D982EA82FB82D8
S1130220CE5DD7402F5F3F4F4F4F5F4F208B318BB9
S1130230428B538B685F7F4F778B668B8E010F5990
S11302401F4FF80166897789161617060CF0B5CF8B
S1130250C252D84F88819981AA81BB81CE5DD74093
S1130260B595A79597958795958B848B615070402C
S1130270778B668B7C010027F7FC0095102F39C023
S1130280F601208931894289538984859585A6851B
S1130290B785281739074A075B0751F430920901DB
S11302A02092080161E070E0C60148960E949A110C
S11302B0F601A285B385A20FB31F8C919927AA27B3
S11302C0BB27062E04C0880F991FAA1FBB1F0A94C0
S11302D0D2F7E82AF92A0A2B1B2B2F5F3F4F4F4FE7
S11302E05F4F208B318B428B538B685F7F4F778BB3
S11302F0668B81E6C82ED12CCC0EDD1EF6016689F4
S11303007789623071050CF4BBCFD801C70102E0D4
S1130310B595A795979587950A95D1F7958B848B75
S113032062507040778B668B970123703070211573
S1130330310509F0D8C0158A148A178A168A2089CB
S1130340318942895389DA01C9010496A11DB11D7D
S11303506484758486849784681679068A069B0665
S113036010F40C94C60FA285B385FD01E20FF31FB0
S11303708081A82EBB242F5F3F4F4F4F5F4FF60164
S1130380208B318B428B538BFD01E20FF31F808155
S11303909927982F8827A82AB92A2F5F3F4F4F4FB4
S11303A05F4FF601208B318B428B538BFD01E20FA3
S11303B0F31F6081772725014094509479018A01C5
S11303C00894E11CF11C011D111DF601E08AF18A5B
S11303D0028B138BC20190706817790711F00C948B
S11303E09A0FAE0DBF1D2C913327B801A7014F5FA3
S11303F05F4F6F4F7F4F408B518B628B738B852D7B
S113040099272817390711F00C949A0F75010027C2
S113041011279A01AB012E0D3F1D401F511F62167B
S113042073068406950610F40C94C60F808191819E
S1130430892B09F445C086819781A085B185E80E92
S1130440F91E0A1F1B1F82819381A481B5818E1519
S11304509F05A007B10750F50C94800F8E010F592A
S11304601F4FF80186819781A085B1852089318944
S11304704289538960817181680F791FE284F38412
S1130480E20EF31EF701F080FB01F0820196A11D3C
S1130490B11DF80186839783A087B1872F5F3F4FF3
S11304A04F4F5F4F208B318B428B538B0894A108A5
S11304B0B108FFEFAF16FFEFBF0681F60C94260FCD
S11304C0F60186819781A085B1858E0D9F1DA01FA1
S11304D0B11F86839783A087B187208B318B428B92
S11304E0538B0C94260F2130310509F03BC42114A1
S11304F0310409F43EC1FE01E65FFC4F28E030E020
S1130500CE01865D9B4F21933193E817F907D9F704
S11305109E01265F3A4F89E090E002C08193919357
S1130520E217F307D9F79E01265C3A4F87E090E083
S113053002C081939193E217F307D9F79E01265BDA
S11305403A4F88E090E002C081939193E217F30759
S1130550D9F780E090E0E0910401F0910501119257
S11305601192029680329105D1F7DE01A65FBC4F4D
S11305702091040130910501AE01465B5A4FED9183
S1130580FD91EE0FFF1FE20FF31F80819181019611
S113059091838083A417B50791F7D9018D919C911C
S11305A011978052914009F456C0F90141E050E09E
S11305B021E030E0220F331F82819381281B390B05
S11305C037FD49C04F5F5F4F32964031510591F777
S11305D01C821B82BD01DE011396AE01415E5F4F9A
S11305E08D919C911197FB0122813381820F931F7E
S11305F0FD019383828312966E5F7F4FA417B50724
S113060079F720E030E0AE01465F5C4F8E010F5F6A
S11306101F4F6091060170910701FA01A081B18119
S1130620109789F0AA0FBB1FA00FB11F8D919C9149
S11306301197FC01EE0FFF1FE60FF71F3183208394
S113064001968D939C932F5F3F4F4E5F5F4FF1E078
S113065020323F0711F7FE01E65FFC4F25E030E052
S1130660CF01CC9621933193E817F907D9F780E0AD
S113067090E0E0910001F091010111921192029633
S113068080329105D1F7DE01A65FBC4F20910001B5
S113069030910101AD01445C5F4FED91FD91EE0F8E
S11306A0FF1FE20FF31F8081918101969183808364
S11306B0A417B50791F7D9018D919C9111974E9785
S11306C009F455C0F90141E050E021E030E0220F87
S11306D0331F82819381281B390B37FD48C04F5F3C
S11306E05F4F32964031510591F71C821B82BD0148
S11306F0DE011396AE01415E5F4F8D919C9111977F
S1130700FB0122813381820F931FFD019383828336
S113071012966E5F7F4FA417B50779F720E030E09B
S1130720AE01465F5C4F8E010F5F1F4F6091020167
S113073070910301FA01A081B181109789F0AA0F89
S1130740BB1FA00FB11F8D919C911197FC01EE0F5F
S1130750FF1FE60FF71F3183208301968D939C932F
S11307602F5F3F4F4E5F5F4F2E31310519F7222423
S11307703324FE01EF59FF4FA489B589668977892F
S1130780C0900401D090050112E0E12EF12CCE0CB2
S1130790DF1CF1E08F2E912C66247724AA24BB243D
S11307A0EE24FF2440C0AD01417050704629572902
S11307B0B595A795F60120813181CA01821B930B5F
S11307C08A159B0504F5FE01EF59FF4FB58BA48BE9
S11307D0868997898819990987709070978B868B79
S11307E04A195B09E40EF51EEE0CFF1C809106010C
S11307F090910701E80EF91ED7018D909C9097FE09
S113080049C00C94C90DE2E0F0E0CE0EDF1EE20E0A
S1130810F31EA20EB31EAA0CBB1C3A01660C771C75
S11308200894811C911C61507040FFEF6F3F7F075B
S113083009F0B9CF60E170E06819790911F40C94FA
S1130840880F8E010F591F4FF80120893189428981
S1130850538984859585A685B785281739074A075E
S11308605B0711F40C94FC0DF801A285B385A20F6B
S1130870B31F8C91A82FBB272F5F3F4F4F4F5F4F64
S1130880208B318B428B538B6930710564F268E0A5
S113089070E0C9CFFFEF8F16910409F054F5BE0143
S11308A06F597F4FDB010D911C9101151105A1F0CA
S11308B0FB01268137814085518582819381A48102
S11308C0B581281739074A075B0711F40C94800F88
S11308D0020F131FD8018C92FB0186819781A0859A
S11308E0B1850196A11DB11D86839783A087B18729
S11308F040CFF0E08F16F1E09F0611F40C94260F20
S1130900C401815091408D31910514F00C94880FED
S1130910FC01EE0FFF1FDF01A454BE4F0D90BC91EC
S1130920A02DC852D84FB983A883C85DD740EE57CD
S1130930FE4F0190F081E02DC652D84FF983E88331
S1130940CA5DD740FE01EF59FF4F848995896C0138
S1130950EE24D7FCE094FE2CCC52D84FC882D98226
S1130960EA82FB82C45DD74041C0F8012089318905
S11309704289538984859585A685B78528173907C3
S11309804A075B0711F40C94FC0DF801A285B385AA
S1130990A20FB31F8C919927AA27BB27062E04C048
S11309A0880F991FAA1FBB1F0A94D2F7CC52D84FA5
S11309B0C880D980EA80FB80C45DD740C82AD92A80
S11309C0EA2AFB2ACC52D84FC882D982EA82FB8217
S11309D0C45DD7402F5F3F4F4F4F5F4F208B318B0C
S11309E0428B538B685F7F4F778B668B8E010F59D9
S11309F01F4FF80166897789C652D84FC880D980BD
S1130A00CA5DD7406C157D050CF4AFCFCC52D84FDE
S1130A1088819981AA81BB81C45DD740C652D84FD1
S1130A200880CA5DD74004C0B595A795979587956A
S1130A300A94D2F7958B848B6C197D09778B668B1E
S1130A40DC01C0900001D090010182E0E82EF12C7D
S1130A50CE0CDF1C01E0802E912C66247724AA247E
S1130A60BB24EE24FF2440C0AD01417050704629E0
S1130A705729B595A795F60120813181CA01821BBA
S1130A80930B8A159B0504F5FE01EF59FF4FB58BB7
S1130A90A48B868997898819990987709070978B98
S1130AA0868B4A195B09E40EF51EEE0CFF1C80913F
S1130AB0020190910301E80EF91ED7018D909C90DC
S1130AC097FE49C00C94C90DE2E0F0E0CE0EDF1EA3
S1130AD0E20EF31EA20EB31EAA0CBB1C3A01660C56
S1130AE0771C0894811C911C61507040FFEF6F3F8C
S1130AF07F0709F0B9CF60E170E06819790911F452
S1130B000C94880F8E010F591F4FF80120893189E9
S1130B104289538984859585A685B7852817390721
S1130B204A075B0711F40C94FC0DF801A285B38508
S1130B30A20FB31F8C91A82FBB272F5F3F4F4F4F9E
S1130B405F4F208B318B428B538B6930710564F27C
S1130B5068E070E0C9CFF401EE0FFF1FDF01AA5B6C
S1130B60BE4F0D90BC91A02DC452D84FB983A88319
S1130B70CC5DD740E65FFE4F40805180FE01EF59C7
S1130B80FF4F848995895C01CC24B7FCC094DC2C8C
S1130B9031C0F3012089318942895389848595853F
S1130BA0A685B785281739074A075B0711F40C9403
S1130BB0470EF301A285B385A20FB31F8C91992729
S1130BC0AA27BB27062E04C0880F991FAA1FBB1F84
S1130BD00A94D2F7A82AB92ACA2ADB2A2F5F3F4FE0
S1130BE04F4F5F4F208B318B428B538B685F7F4F0E
S1130BF0778B668B91E6692E712C6C0E7D1EF3014A
S1130C00668977896415750524F2D601C501042C1B
S1130C1004C0B595A795979587950A94D2F7958BB7
S1130C20848B64197509778B668B81E0E82EF12C2F
S1130C30012D112DD801C70104C0880F991FAA1FC7
S1130C40BB1F4A94D2F72C010894410851084A204A
S1130C505B20C452D84FC880D980CC5DD7404C0C9F
S1130C605D1C2681378140855185C201AA27BB2797
S1130C70281739074A075B0710F40C94910FC652E2
S1130C80D84F0880CA5DD74004C0EE0CFF1C001F7B
S1130C90111F0A94D2F7B70161507040CC52D84F5B
S1130CA0E880F980C45DD7406E217F21C852D84FB7
S1130CB088819981C85DD740680F791F80819181AF
S1130CC0892BD1F1CB01AA2797FDA095BA2F280F24
S1130CD0391F4A1F5B1F82819381A481B5818217CA
S1130CE09307A407B50708F50C94800F9E012F59AC
S1130CF03F4FD9014D915C91F90186819781DA01C9
S1130D00A80FB91F84199509480F591FFA0180814A
S1130D108C93F90186819781A085B1850196A11DE7
S1130D20B11D86839783A087B18761507040FFEF20
S1130D306F3F7F07D9F60EC0CB01AA2797FDA09578
S1130D40BA2F280F391F4A1F5B1FF30126833783ED
S1130D5040875187F0E08F16F1E09F0609F009CD36
S1130D600C94260F2230310511F00C94390F2C010C
S1130D70662457FC6094762C30C0F80120893189B0
S1130D804289538984859585A685B78528173907AF
S1130D904A075B0709F430C7F801A285B385A20F9F
S1130DA0B31F8C919927AA27BB27062E04C0880F4E
S1130DB0991FAA1FBB1F0A94D2F7482A592A6A2AE4
S1130DC07B2A2F5F3F4F4F4F5F4F208B318B428BDE
S1130DD0538B685F7F4F778B668B8E010F591F4F44
S1130DE0F80166897789653071053CF2D301C20147
S1130DF005E0B595A795979587950A95D1F7958BB5
S1130E00848B65507040778B668B4C01AA2497FCC9
S1130E10A094BA2C30C0F8012089318942895389C1
S1130E2084859585A685B785281739074A075B0702
S1130E3009F4E2C6F801A285B385A20FB31F8C9111
S1130E409927AA27BB27062E04C0880F991FAA1F1B
S1130E50BB1F0A94D2F7882A992AAA2ABB2A2F5F91
S1130E603F4F4F4F5F4F208B318B428B538B685FCB
S1130E707F4F778B668B8E010F591F4FF801668960
S1130E807789653071053CF2D501C40115E0B5954B
S1130E90A795979587951A95D1F7958B848B65506F
S1130EA07040778B668B7C010027F7FC0095102F30
S1130EB030C0F6012089318942895389848595851A
S1130EC0A685B785281739074A075B0709F4E6C9D9
S1130ED0F601A285B385A20FB31F8C919927AA2787
S1130EE0BB27062E04C0880F991FAA1FBB1F0A9494
S1130EF0D2F7E82AF92A0A2B1B2B2F5F3F4F4F4FBB
S1130F005F4F208B318B428B538B685F7F4F778B86
S1130F10668B61E6C62ED12CCC0EDD1EF6016689E9
S1130F207789643071052CF292012F7130702F5F34
S1130F303E4FC053D84F39832883C05DD740D80172
S1130F40C70154E0B595A795979587955A95D1F71C
S1130F50958B848B64507040778B668B4FE0642E46
S1130F60712C6E207F2044E050E0640E751E2F51DA
S1130F7031400CF086C7C4018F7190700196C25342
S1130F80D84F99838883CE5CD7404F970CF079C7AC
S1130F908824992496EF492E91E0592E6CC0D201F1
S1130FA0AD90BC90FE01EF59FF4F848995897C0177
S1130FB00027F7FC0095102F30C0F60120893189F5
S1130FC04289538984859585A685B785281739076D
S1130FD04A075B0709F462C9F601A285B385A20F2B
S1130FE0B31F8C919927AA27BB27062E04C0880F0C
S1130FF0991FAA1FBB1F0A94D2F7E82AF92A0A2BC1
S11310001B2B2F5F3F4F4F4F5F4F208B318B428BFA
S1131010538B685F7F4F778B668B81E6C82ED12C0C
S1131020CC0EDD1EF60166897789633071052CF2DA
S1131030D801C70113E0B595A795979587951A959B
S1131040D1F7958B848B63507040778B668BAA0C99
S1131050BB1CCE01865B9A4FA80EB91EC7018770D0
S11310609070D5018D939C930894811C911CE2E0AF
S1131070F0E04E0E5F1E861497040CF490CFD4015A
S1131080AA0FBB1FAA50BE4FCE01865B9A4F0BC05E
S1131090ED91FD91EE0FFF1FE80FF91F11821082F1
S11310A00894811C911CF3E18F1691048CF39E012A
S11310B02F5F3F4FCE53D84F39832883C25CD7402C
S11310C0CE018196CE53D84FA881B981C25CD74056
S11310D01D921D92CE53D84FB983A883C25CD740CA
S11310E0A817B90779F7DE01A65BBA4FAE014F5FC7
S11310F05F4F9D012A5D3F4FED91FD91EE0FFF1F64
S1131100E40FF51F80819181019691838083A2175A
S1131110B30791F789819A81439709F45EC0FE0170
S1131120339661E070E0660F771F80819181681BC0
S1131130790B0AF4AFC63296CE53D84FC880D98003
S1131140C25CD740EC15FD0571F7FE01ED5BFF4F66
S113115011821082DE011396CE018F5B9F4FFC013A
S11311603296AC01425E5F4F808191812D913D9119
S1131170820F931F938382833296E417F507A1F7B6
S113118020E030E0AE01465B5A4F91E4E92EF12CA9
S1131190EC0EFD1E8E0102531F4FFA01A081B18196
S11311A0109789F0AA0FBB1FAE0DBF1D8D919C91A6
S11311B01197FC01EE0FFF1FE00FF11F3183208315
S11311C001968D939C932F5F3F4F4E5F5F4F23316A
S11311D0310519F7672B09F05DC666247724DEC153
S11311E0FE01EF59FF4FA489B5896689778981E0AB
S11311F0A82EB12C44245524CC24DD24EE24FF2431
S113120003E0802E912C8C0E9D1E40C0AD014170D8
S1131210507044295529B595A795F4012081318151
S1131220CA01821B930B8C159D0504F5FE01EF5931
S1131230FF4FB58BA48B868997898A199B09877080
S11312409070978B868B4C195D09E40EF51EEE0C9D
S1131250FF1CCE0182539F4FE80EF91ED7012D913A
S11312603C91203131050CF447C054C0E2E0F0E079
S11312708E0E9F1EE20EF31EC20ED31ECC0CDD1C7E
S11312802A01440C551C0894A11CB11C61507040E7
S1131290FFEF6F3F7F0709F0B9CF60E170E06A1993
S11312A07B0941F18E010F591F4FF80120893189C3
S11312B04289538984859585A685B785281739077A
S11312C04A075B0709F498C4F801A285B385A20F05
S11312D0B31F8C91A82FBB272F5F3F4F4F4F5F4FFA
S11312E0208B318B428B538B693071057CF268E023
S11312F070E0CCCF26EF3FEFF301EE0FFF1FCE01DE
S1131300865B9A4FE80FF91F3183208393012F5F87
S11313103F4F43C12031310509F068C061147104A5
S113132009F4C1C5F301EE0FFF1FEC0FFD1FE85BCD
S1131330FA4FA080B180FE01EF59FF4F848995894F
S11313407C010027F7FC0095102F31C0F60120899D
S113135031894289538984859585A685B78528175F
S113136039074A075B0711F40C944E01F601A28574
S1131370B385A20FB31F8C919927AA27BB27062EEA
S113138004C0880F991FAA1FBB1F0A94D2F7E82A2A
S1131390F92A0A2B1B2B2F5F3F4F4F4F5F4F208B98
S11313A0318B428B538B685F7F4F778B668B51E613
S11313B0C52ED12CCC0EDD1EF601668977896230EC
S11313C0710524F2D801C70142E0B595A795979518
S11313D087954A95D1F7958B848B62507040778BB3
S11313E0668BC701837090700396BBC021313105B1
S11313F009F05BC0FE01EF59FF4F848995897C0198
S11314000027F7FC0095102F31C0F601208931899F
S11314104289538984859585A685B7852817390718
S11314204A075B0711F40C944E01F601A285B385BB
S1131430A20FB31F8C919927AA27BB27062E04C09D
S1131440880F991FAA1FBB1F0A94D2F7E82AF92A0A
S11314500A2B1B2B2F5F3F4F4F4F5F4F208B318B3E
S1131460428B538B685F7F4F778B668B31E6C32E3D
S1131470D12CCC0EDD1EF6016689778963307105A7
S113148024F2D801C70123E0B595A79597958795D0
S11314902A95D1F7958B848B63507040778B668B3C
S11314A0C7018770907003965AC0FE01EF59FF4F31
S11314B0848995897C010027F7FC0095102F31C0A1
S11314C0F601208931894289538984859585A685C9
S11314D0B785281739074A075B0711F40C944E01A6
S11314E0F601A285B385A20FB31F8C919927AA2771
S11314F0BB27062E04C0880F991FAA1FBB1F0A947E
S1131500D2F7E82AF92A0A2B1B2B2F5F3F4F4F4FA4
S11315105F4F208B318B428B538B685F7F4F778B70
S1131520668B81E6C82ED12CCC0EDD1EF6016689B1
S113153077896730710524F2D801C70117E0B595A2
S1131540A795979587951A95D1F7958B848B6750B6
S11315507040778B668BC7018F7790700B96AA24A7
S1131560BB249301280F391FCE52D84FC880D9808D
S1131570C25DD740C216D3060CF49EC4FE01E65BDE
S1131580FA4F660C771CE60DF71D02C0A192B192CA
S113159001974FEF8F3F9407C9F73901C053D84FD4
S11315A088819981C05DD740C253D84FA881B98141
S11315B0CE5CD7408A0F9B1FCE52D84F9983888325
S11315C0C25DD740681679060CF40ACEFE01E65BCC
S11315D0F84F80819181892B09F477C4FE013196FB
S11315E011921192CE53D84FC880D980C25CD74093
S11315F0EC15FD05A9F720E030E0DE01A65BBA4F4B
S1131600AE014F5F5F4F0DC0ED91FD91EE0FFF1FD7
S1131610E40FF51F808191810196918380832F5F70
S11316203F4FC053D84FE880F980C05DD7402E1596
S11316303F0554F389819A818E159F0509F46EC084
S1131640FE01339641E050E0440F551F80819181A3
S1131650481B590B0AF442C43296CE53D84F288102
S11316603981C25CD740E217F30771F7FE01ED5BE5
S1131670FF4F11821082DE011396CE018F5B9F4FC4
S1131680FC013296BC01625E7F4F808191812D9175
S11316903D91820F931F938382833296E617F70757
S11316A0A1F720E030E0BE01665B7A4F91E4E92EB9
S11316B0F12CEC0EFD1E8E0102531F4F1AC0FB01CC
S11316C0A081B181109789F0AA0FBB1FAE0DBF1D79
S11316D08D919C911197FC01EE0FFF1FE00FF11FFC
S11316E03183208301968D939C932F5F3F4F6E5FD0
S11316F07F4FC053D84FC880D980C05DD7402C15C8
S11317003D05ECF257FDEAC3452B41F089819A81EE
S1131710C81AD90AC601019709F0E0C38E01065B15
S11317201A4FC053D84FE880F980C05DD740EE0C03
S1131730FF1C0E0D1F1DBE016F5D7F4FCB018096F8
S1131740DB011D921D92BD01A817B907C9F7D80185
S113175020E030E0AE014F5D5F4F0DC0ED91FD9193
S1131760EE0FFF1FE40FF51F808191810196918395
S113177080832F5F3F4FC253D84FE881F981CE5CFD
S1131780D7402E173F0754F389A19AA18E179F07BC
S113179009F467C0FE01B39641E050E0440F551FC1
S11317A080819181481B590B0AF4A1C33296E61734
S11317B0F707A1F7FE01ED5BFF4F11821082DE01F6
S11317C09396CE018F5B9F4FFC013296BC01625E03
S11317D07F4F808191812D913D91820F931F93833F
S11317E082833296E617F707A1F7980160E070E06C
S11317F091E4E92EF12CEC0EFD1E8E010E561F4FC6
S11318001AC0F901A081B181109789F0AA0FBB1FFA
S1131810AE0DBF1D8D919C911197FC01EE0FFF1F22
S1131820E00FF11F7183608301968D939C936F5F2A
S11318307F4F2E5F3F4FC253D84FC880D980CE5CB4
S1131840D7406C157D05ECF257FD51C3452B49F08B
S113185089A19AA1C81AD90A96012130310509F043
S113186046C3FE01EF59FF4FA489B589668977897C
S113187051E0A52EB12C66247724CC24DD24EE245B
S1131880FF2443E0842E912C8C0E9D1E3EC0AD019E
S11318904170507046295729B595A795F4012081C8
S11318A03181CA01821B930B8C159D05F4F4FE0152
S11318B0EF59FF4FB58BA48B868997898A199B09A9
S11318C087709070978B868B4C195D09E40EF51E1A
S11318D0EE0CFF1CCE0182539F4FE80EF91ED70178
S11318E08D909C9097FE46C054C1E2E0F0E08E0ECD
S11318F09F1EE20EF31EC20ED31ECC0CDD1C3A0159
S1131900660C771C0894A11CB11C61507040FFEF59
S11319106F3F7F0709F0BBCF60E170E06A197B0974
S113192009F4F6C28E010F591F4FF801208931893D
S11319304289538984859585A685B78528173907F3
S11319404A075B0709F458C1F801A285B385A20FC1
S1131950B31F8C91A82FBB272F5F3F4F4F4F5F4F73
S1131960208B318B428B538B6930710574F268E0A4
S113197070E0CBCFFFEF8F16910409F04CF5BE0158
S11319806F597F4FDB010D911C910115110599F0E1
S1131990FB01268137814085518582819381A48111
S11319A0B581281739074A075B0709F4A9C2020F52
S11319B0131FD8018C92FB0186819781A085B18584
S11319C00196A11DB11D86839783A087B18749CF56
S11319D0F0E08F16F1E09F0609F438C2C40181508B
S11319E091408D3191050CF093C2FC01EE0FFF1F65
S11319F0DF01A454BE4F0D90BC91A02DC853D84F05
S1131A00B983A883C85CD740EE57FE4F0190F0819C
S1131A10E02DC653D84FF983E883CA5CD740FE0152
S1131A20EF59FF4F848995896C01EE24D7FCE0942B
S1131A30FE2CCC53D84FC882D982EA82FB82C45C84
S1131A40D74040C0F801208931894289538984856F
S1131A509585A685B785281739074A075B0709F4D2
S1131A60CBC0F801A285B385A20FB31F8C9199272F
S1131A70AA27BB27062E04C0880F991FAA1FBB1FC5
S1131A800A94D2F7CC53D84FC880D980EA80FB801F
S1131A90C45CD740C82AD92AEA2AFB2ACC53D84F97
S1131AA0C882D982EA82FB82C45CD7402F5F3F4F51
S1131AB04F4F5F4F208B318B428B538B685F7F4F2F
S1131AC0778B668B8E010F591F4FF80166897789D2
S1131AD0C653D84FC880D980CA5CD7406C157D05E1
S1131AE00CF4B0CFCC53D84F88819981AA81BB81A3
S1131AF0C45CD740C653D84F0880CA5CD74004C0E2
S1131B00B595A795979587950A94D2F7958B848B6D
S1131B106C197D09778B668BDC0111E0A12EB12C49
S1131B2066247724CC24DD24EE24FF24F3E28F2ED4
S1131B30912C8C0E9D1E42C0AD01417050704629FF
S1131B405729B595A795F40120813181CA01821BDB
S1131B50930B8C159D0514F5FE01EF59FF4FB58BC2
S1131B60A48B868997898A199B0987709070978BB3
S1131B70868B4C195D09E40EF51EEE0CFF1CCE019C
S1131B808E569F4FE80EF91ED7018D909C9097FEBC
S1131B9052C03092090120920801D4C1E2E0F0E081
S1131BA08E0E9F1EE20EF31EC20ED31ECC0CDD1C45
S1131BB03A01660C771C0894A11CB11C615070405A
S1131BC0FFEF6F3F7F0709F0B7CF60E170E06A195C
S1131BD07B0909F49DC18E010F591F4FF80120891B
S1131BE031894289538984859585A685B7852817C7
S1131BF039074A075B0749F430920901209208012A
S1131C0061E070E0C8010C945501F801A285B38528
S1131C10A20FB31F8C91A82FBB272F5F3F4F4F4FAD
S1131C205F4F208B318B428B538B6930710534F2BB
S1131C3068E070E0C3CFF401EE0FFF1FDF01AA5B81
S1131C40BE4F0D90BC91A02DC453D84FB983A88327
S1131C50CC5CD740E65FFE4F40805180FE01EF59D7
S1131C60FF4F848995895C01CC24B7FCC094DC2C9B
S1131C7038C0F30120893189428953898485958547
S1131C80A685B785281739074A075B0749F43092B8
S1131C9009012092080161E070E0C3010C94550130
S1131CA0F301A285B385A20FB31F8C919927AA27AC
S1131CB0BB27062E04C0880F991FAA1FBB1F0A94B6
S1131CC0D2F7A82AB92ACA2ADB2A2F5F3F4F4F4FDF
S1131CD05F4F208B318B428B538B685F7F4F778BA9
S1131CE0668B81E6682E712C6C0E7D1EF30166896D
S1131CF07789641575050CF4BCCFD601C501042C95
S1131D0004C0B595A795979587950A94D2F7958BB6
S1131D10848B64197509778B668B01E0E02EF12CB6
S1131D20012D112DD801C70104C0880F991FAA1FC6
S1131D30BB1F4A94D2F72C010894410851084A2049
S1131D405B20C453D84FC880D980CC5CD7404C0C9E
S1131D505D1C2681378140855185C201AA27BB2796
S1131D60281739074A075B0708F4DBC0C653D84F66
S1131D700880CA5CD74004C0EE0CFF1C001F111F72
S1131D800A94D2F7B70161507040CC53D84FE88021
S1131D90F980C45CD7406E217F21C853D84F888115
S1131DA09981C85CD740680F791F80819181892B04
S1131DB0C9F1CB01AA2797FDA095BA2F280F391F87
S1131DC04A1F5B1F82819381A481B5818217930787
S1131DD0A407B50700F594C09E012F593F4FD901C0
S1131DE04D915C91F90186819781DA01A80FB91FA1
S1131DF084199509480F591FFA0180818C93F901C0
S1131E0086819781A085B1850196A11DB11D868328
S1131E109783A087B18761507040FFEF6F3F7F07C2
S1131E20D9F60EC0CB01AA2797FDA095BA2F280F8B
S1131E30391F4A1F5B1FF30126833783408751876D
S1131E40F0E08F16F1E09F0609F00BCDC252D84F97
S1131E5088819981CE5DD74081709070892B11F46F
S1131E600C94CA0030920901209208018824992414
S1131E706CC030920901209208011FEF812E912E2F
S1131E8061C03092090120920801BDEF8B2EBFEF93
S1131E909B2E58C03092090120920801ACEF8A2E83
S1131EA0AFEF9A2E4FC03092090120920801FBEF48
S1131EB08F2EFFEF9F2E46C0309209012092080119
S1131EC0EAEF8E2EEFEF9E2E3DC030920901209254
S1131ED0080177EF872E7FEF972E34C030920901E7
S1131EE02092080169EF862E6FEF962E2BC0309258
S1131EF009012092080158EF852E5FEF952E22C02C
S1131F00309209012092080141E0842E912C1AC0DC
S1131F10309209012092080136EF832E3FEF932E71
S1131F2011C0309209012092080125EF822E2FEF73
S1131F30922E08C030920901209208019EEF892E4A
S1131F409FEF992E181419044CF1FE01EF59FF4F1D
S1131F502681378140855185CE51D84FA881B981DA
S1131F60C25ED7402D933D934D935C931397808924
S1131F709189A289B389CC51D84FE881F981C45E93
S1131F80D74080839183A283B38308C03092090130
S1131F902092080182E0882E912CD4CFC401CB5129
S1131FA0D84F0FB6F894DEBF0FBECDBFDF91CF91EF
S1131FB01F910F91FF90EF90DF90CF90BF90AF9063
S1131FC09F908F907F906F905F904F903F902F9055
S1131FD008958FB7F894992708958FBF08951F9295
S1131FE00F920FB60F9211248F938FB180915207E5
S1131FF08FB98F910F900FBE0F901F901895CEE759
S1132000DAE0DEBFCDBF5FB7F8948FEF809355075A
S11320108093560781E08EBD88E080BF83E083BF54
S11320208CB59DB54AE72CB53DB52817390708F49A
S11320304150442311F0C901F6CF92B782B78917F2
S1132040E9F32CB53DB592B782B78917E9F38CB59E
S11320509DB5821B930B409625E0969587952A950E
S1132060E1F7909354078093530713BE83B78EBD53
S11320708EB580BF12BE1DBC1CBC8FEF86BF86B759
S113208080937C0080B7992787709070892BD1F753
S1132090D29AD19AD09ADA9AD99AD89A15BA8FEF55
S11320A084BBD498DC98D6988C9A8E9A8F9A949AFA
S11320B0979A969A949880E097989698969A8F5FB4
S11320C08730D1F7979A9698969A949A9FE380E0EE
S11320D097FF02C0979A01C097989698969A8F5F37
S11320E0883011F0990FF4CF949A979A969A94980D
S11320F096E180E097FF02C0979A01C0979896985E
S1132100969A8F5F873011F0990FF4CF979A96982B
S1132110969A949A80E097989698969A8F5F8830CA
S1132120D1F7949A979A969AB998BF98BB98BA9807
S113213080E285BF2FEF809155078F3FC1F09091CA
S11321405507E0915507FF27EA5AF84F808180939D
S11321505507809155078F3F11F480935607892FB7
S11321609927FC01EA5AF84F20838F3F21F7809189
S113217055078F3FC9F090915507E0915507FF2708
S1132180EA5AF84F808180935507809155078F3F15
S113219011F480935607892F9927FC01EA5AF84FC6
S11321A02FEF20838F3F19F7852F99278FBF7894BE
S11321B0DE011996ECE1F2E089E792E001900D92DC
S11321C00197E1F789E792E0A0E0B0E089839A8380
S11321D0AB83BC8380E094E0A0E0B0E08D839E8379
S11321E0AF83B887EE24FF248701CC24DD249E012D
S11321F02F5F3F4FAE01475F5F4FBE016B5F7F4F65
S1132200CE018E579D4F0E946A00892B31F00894AD
S1132210E11CF11C011D111D05C00894E108F10821
S1132220010911090894C11CD11C80E0C81684E07E
S1132230D806E9F6E114F1040105110541F08FB760
S1132240F89499272BB334E023272BBB8FBF8FB788
S1132250F894482F55272DC087B7887BC1F4809107
S11322607D008B7FA1F46E9912C08AB190919A007F
S1132270892B807C61F48091740082FD08C0379BB7
S113228003C0E1E0F0E005C0E5E0F0E002C0E0E01A
S1132290F0E085B7E63008F0E5E0FF27E457FF4FAC
S11322A0C895E02D837E8062E82BE5BF78948895FD
S11322B0F894809155078F3F79F290915507E091FA
S11322C05507FF27EA5AF84F80818093550780917C
S11322D055078F3F11F480935607892F9927FC01E6
S11322E0EA5AF84F2FEF20838F3F09F4B5CF4FBF41
S11322F0AECFFC01ADB7BB2711960D90068A0C90AA
S1132300058AA28BB38B0FB6048A20823182428263
S113231053826482758286829782A086B186C28641
S1132320D386E486F58606871787C08BD18B8827EA
S113233099270895DC01CB0181309105811D2D90F1
S11323403D904D905D906D907D908D909D90AD9061
S1132350BD90CD90DD90ED90FD900D911D91CD91AE
S1132360DD91ED91FD910D90F8940FBEEDBFED91CF
S1092370FD910994FFCF6A
S11323769604B604F20412050100000000000000F1
S11323860000010001000200020003000300040033
S11323960400050005000600060007000700080003
S11323A60800090009000A000A000B000B000C00D3
S11323B60C000D000D0001000200030004000500DE
S11323C6070009000D001100190021003100410029
S11323D661008100C10001018101010201030104C0
S11323E601060108010C0110011801200130014009
S11323F60160000000000000000000000000000072
S113240600000100010001000100020002000200B8
S11324160200030003000300030004000400040098
S11324260400050005000500050000000300040083
S1132436050006000700080009000A000B000D004D
S11324460F001100130017001B001F0023002B00B0
S113245633003B0043005300630073008300A30072
S1132466C300E3000201100011001200000008007E
S11324760700090006000A0005000B0004000C0012
S113248603000D0002000E0001000F006D934F685B
S1132496134114C667534B250636550F558A0D222C
S11324A6A237C18B52915E06E658909CBC08421036
S11324B641EC218B1EDCC4B899C330ACF560600FC7
S11324C69E3D799504C19236E2D68B8D5024480FF1
S11324D67B88B27173A81A71AD6BC63793CD3F1062
S11324E64266F2E67BBFF7CD9B17D7FFF25308B6D9
S11324F6456E3672EC295EFD2B84853D8D636F191E
S1132506EF3D6804A760471CBD5A4637965690436C
S11325169C9C5B562A84A4CE32BDA3853D62DB32E5
S1132526446CFAF0408857C7104284BD27CCF5BBEB
S1132536BF018EDB96D946F9642D124274500221EE
S1132546177BA0419DA4064ABB22B308A7B7E4C2E1
S11325563ECABCABA1CCF32DD3D78B27C002CFFA8E
S1132566507AC2606707494C576240953656C00A8E
S11325763292B53FB2C633E04296E56BCABBCA7225
S113258618EEC6453612CAA1EB7FED01AD3E0395A2
S1132596822B40993716878A9958B13D569C1C9EC2
S11325A6CDC5672FD4D91138E3F0C97A762AC1711B
S11325B68B6777ED4389CB9B854CED407A490FBCFD
S11325C6F06C77FA0681F6044A22BD52B7EEF85A41
S11325D6B96E7C1A252F634F5F6FF785D0AB7415E0
S11325E618395A879BFD92B42DA80DA2E98EC7CD42
S11325F62E86A366DF5F92DF850C589602BD8A1C81
S1132606C8621FCE6FB26D2BD4F27335781811DC05
S1132616E3789738C43E0EAF4015506BF26C0BE866
S11326266B0AFB96B01DFFDC7FB16B236C6B121B30
S11326364A6C06DE54016C7BEA6995CBDB509994AF
S1132646DE38B3085D7FD7C812F69994BA17E4202A
S1132656B0D77E5FCA5E7A6AA9B4D46237FB0A3100
S113266638A3FB835F4AC221878672E75224E44C6F
S11326760285D3411E3D2C94B23952A685522EC4EE
S11326864A976646BB33C36C7B50C0AA5F925ECF43
S11326967E1382D6F329174772643A8FC7920D2D9B
S11326A69E82E7DF657B7AC3F070B4D65538B4CC26
S11326B61019F3432CC4EFFE80065D84B036152E44
S11326C6418382450827A6C28F609C83D91AB80322
S11326D658649911325296D9437AD9908D96231417
S11326E6A1E269C22B488CFBC2D2105898B83E4B63
S11326F6731C0D9A7D8D30D323F25FCDF0BE8BFF14
S109270601CCF144860041
S9030000FC
